:10000000008000100D010100F5000100F900010061
:10001000FD0001000101010005010100027AF9EF74
:10002000000000000000000000000000A91D010009
:100030000901010000000000711E0100AD1E010059
:100040006901010069010100690101006901010004
:1000500069010100690101006901010069010100F4
:1000600069010100690101006901010069010100E4
:1000700069010100690101006901010069010100D4
:1000800069010100690101006901010069010100C4
:1000900069010100690101006901010069010100B4
:1000A00069010100690101006901010069010100A4
:1000B0006901010069010100690101006901010094
:1000C0006901010069010100690101003835010081
:1000D00000000010080000003835010000C00720B3
:1000E0000000000008000010DC32000000C0072003
:1000F00000000000FEE700BFFEE700BFFEE700BF14
:10010000FEE700BFFEE700BFFEE700BF08B5124BE9
:10011000124A9A4211D243F23852C0F2010240F21E
:100120000003C1F2000340F20801C1F2000152F8DD
:10013000040B43F8040B8B42F9D3094809494FF0EB
:1001400000028842B8BF40F8042BFADB01F0FCFC47
:1001500002F0EAFDFEE700BF0800001000000010FA
:1001600008000010E4320010FEE700BF00B585B0C3
:1001700042F68813C1F200034FF000041C704FF0E8
:1001800001051D7200F02EF840F29540C0F201000A
:1001900043F2D041C0F2010100940194029403940F
:1001A0004FF40072234601F097FE40F20150C0F276
:1001B000010043F2E441C0F2010100950194029470
:1001C00003944FF40072234601F086FE02F0ECF82F
:1001D000FEE700BFFEE700BFFEE700BF704700BFBD
:1001E000704700BF80B500AF4FF0020041F6F051FC
:1001F0004FF0000201F000F84FF0000040F60C4113
:10020000C0F238714FF0010200F0F6FF4FF000002D
:100210004FF4801101F030F84FF000004FF400115E
:1002200001F02AF84FF000004FF0807101F024F83F
:100230004FF000004FF0007101F01EF84FF0000089
:100240004FF0806101F018F84FF000004FF004010A
:1002500001F012F84FF000004FF0080101F00CF827
:100260004FF000004FF4002101F006F84FF00000BD
:100270004FF4006101F000F84FF000004FF480618E
:1002800000F0FAFF4FF000004FF480014FF0010240
:1002900000F0B2FF4FF000004FF4800100F0ECFFDF
:1002A00080BD00BF80B582B000AF4FF00003FB718E
:1002B0004FF000033B604FF0020000F0F3FF0346F5
:1002C0003B603B6803F02003002B03D1FB7943F034
:1002D0000103FB713B6803F48053002B03D1FB79CE
:1002E00043F00203FB713B6803F48063002B03D1EE
:1002F000FB7943F00403FB713B6803F08003002BA0
:1003000003D1FB7943F00803FB713B6803F0400322
:10031000002B03D1FB7943F01003FB713B6803F41E
:100320008073002B03D1FB7943F02003FB713B6802
:1003300003F40063002B03D1FB7943F04003FB710E
:100340003B6803F01003002B03D1FB7963F07F03BC
:10035000FB71FB79184607F10807BD4680BD00BF59
:1003600080B582B000AF0346FB71FB7903F0010357
:10037000DBB2002B06D04FF000004FF4801100F0EC
:1003800065FF05E04FF000004FF4801100F074FFAE
:10039000FB7903F00203002B06D04FF000004FF46E
:1003A000001100F053FF05E04FF000004FF4001182
:1003B00000F062FFFB7903F00403002B06D04FF03E
:1003C00000004FF0807100F041FF05E04FF00000A9
:1003D0004FF0807100F050FFFB7903F00803002B11
:1003E00006D04FF000004FF0007100F02FFF05E045
:1003F0004FF000004FF0007100F03EFFFB7903F07A
:100400001003002B06D04FF000004FF0806100F089
:100410001DFF05E04FF000004FF0806100F02CFF61
:10042000FB7903F02003002B06D04FF000004FF0C3
:10043000040100F00BFF05E04FF000004FF0040155
:1004400000F01AFFFB7903F04003002B06D04FF0B9
:1004500000004FF0080100F0F9FE05E04FF0000049
:100460004FF0080100F008FFFB795BB2002B06DAC1
:100470004FF000004FF4002100F0E8FE05E04FF0DF
:1004800000004FF4002100F0F7FE07F10807BD4619
:1004900080BD00BF80B582B000AF7860FFF702FF7B
:1004A00003461A4643F29613C1F200031A7043F250
:1004B0009613C1F200031B78DBB2184600F094F9E2
:1004C00003461A4643F29413C1F200031A7043F232
:1004D0009013C1F20003187800F028F903461A4679
:1004E00043F29513C1F200031A7043F29513C1F25F
:1004F00000031B78DBB21846FFF732FFCEE700BFE0
:1005000080B584B000AF786001F094FF0346FB60D3
:10051000FFF7C8FE03461A4643F29613C1F20003E2
:100520001A7043F29613C1F200031B78DBB218462F
:1005300000F05AF903461A4643F29413C1F200033D
:100540001A7043F29413C1F200031B78C3F3000343
:10055000DAB240F20803C1F200031A7043F29413B6
:10056000C1F200031B78C3F34003DAB240F2080380
:10057000C1F200035A7043F29413C1F200031B78D6
:10058000C3F38003DAB240F20803C1F200039A70A9
:1005900043F29413C1F200031B78C3F3C003DAB231
:1005A00040F20803C1F20003DA7043F29413C1F27F
:1005B00000031B78C3F30013DAB240F20803C1F260
:1005C00000031A7143F29413C1F200031B78C3F3C2
:1005D0004013DAB240F20803C1F200035A7143F249
:1005E0009413C1F200031B78C3F38013DAB240F214
:1005F0000803C1F200039A7143F29413C1F200039D
:100600001B78C3F3C013DAB240F20803C1F200034F
:10061000DA7140F20800C1F2000000F059F940F22E
:100620000803C1F20003197A43F29013C1F20003E8
:100630001A7861F300021A7040F20803C1F2000355
:10064000597A43F29013C1F200031A7861F3410220
:100650001A7040F20803C1F20003997A43F2901332
:10066000C1F200031A7861F382021A7040F20803A3
:10067000C1F20003D97A43F29013C1F200031A7851
:1006800061F3C3021A7040F20803C1F20003197B40
:1006900043F29013C1F200031A7861F304121A7046
:1006A00040F20803C1F20003597B43F29013C1F2F8
:1006B00000031A7861F345121A7040F20803C1F280
:1006C0000003997B43F29013C1F200031A7861F39F
:1006D00086121A7040F20803C1F20003D97B43F27C
:1006E0009013C1F200031A7861F3C7121A7043F233
:1006F0009013C1F20003187800F018F803461A4668
:1007000043F29513C1F200031A7043F29513C1F23C
:1007100000031B78DBB21846FFF722FE07F10C033B
:1007200018464FF0140101F0F3FFF1E680B485B0F4
:1007300000AF38714FF00003FB733B79C3F3000344
:10074000DBB2002B03D0FB7B43F00103FB733B794F
:10075000C3F34003DBB2002B03D0FB7B43F0020367
:10076000FB733B79C3F38003DBB2002B03D0FB7B2D
:1007700043F00403FB733B79C3F3C003DBB2002BEC
:1007800003D0FB7B43F00803FB733B79C3F30013F7
:10079000DBB2002B03D0FB7B43F01003FB733B79F0
:1007A000C3F34013DBB2002B03D0FB7B43F02003E9
:1007B000FB733B79C3F38013DBB2002B03D0FB7BCD
:1007C00043F04003FB733B79C3F3C013DBB2002B50
:1007D00003D0FB7B63F07F03FB73FB7B184607F1C1
:1007E0001407BD4680BC704780B485B000AF034697
:1007F000FB713B7B6FF300033B733B7B6FF3410368
:100800003B733B7B6FF382033B733B7B6FF3C30311
:100810003B733B7B6FF304133B733B7B6FF34513DD
:100820003B733B7B6FF386133B733B7B6FF3C713C9
:100830003B73FB7903F00103DBB2002B03D03B7B5E
:1008400043F001033B73FB7903F00203002B03D059
:100850003B7B43F002033B73FB7903F00403002B63
:1008600003D03B7B43F004033B73FB7903F00803A5
:10087000002B03D03B7B43F008033B73FB7903F071
:100880001003002B03D03B7B43F010033B73FB7939
:1008900003F02003002B03D03B7B43F020033B738A
:1008A000FB7903F04003002B03D03B7B43F0400374
:1008B0003B73FB795BB2002B03DA3B7B43F0800395
:1008C0003B733B7B184607F11407BD4680BC70475D
:1008D00080B588B000AF78604FF00003FB734FF035
:1008E0000003FB774FF00003BB614FF000037B6117
:1008F0004FF000033B617B6803F1100318464FF093
:1009000001014FF000024FF0010300F0A9F87B68ED
:1009100003F1140318464FF001014FF0000200F0FC
:10092000BFFA7B6840F6C4129A617B6803F1140336
:10093000184600F031FB7B681B7FFB7307F10F0348
:1009400018464FF001014FF000024FF0000300F095
:1009500087F87B6803F10F0318464FF001014FF051
:10096000000200F09DFA7B6803F10F0318464FF078
:1009700001014FF000024FF0000300F071F87B68B6
:1009800003F1300318464FF001014FF0000200F070
:1009900087FA7B684FF47A725A637B6803F13003FD
:1009A000184600F0F9FA7B6893F83830FB7307F1CA
:1009B0000F0318464FF001014FF000024FF0000303
:1009C00000F04EF87B6803F1100318464FF0010168
:1009D0004FF0000200F064FA7B6803F10F03184641
:1009E0004FF001014FF000024FF0000300F038F823
:1009F0007B6803F14C0318464FF001014FF00002F1
:100A000000F04EFA7B681A787B6883F84D207B688B
:100A10004FF00502A3F84E207B6803F14C03184603
:100A200000F078FA7B6893F85030FB7307F10F03FE
:100A300018464FF001014FF000024FF0000300F0A4
:100A40000FF87B6803F10C0318464FF001014FF0DB
:100A5000000200F025FA07F12007BD4680BD00BF67
:100A600080B586B000AF786079807A703B7042F6CE
:100A70008813C1F200037A781A707B78172B00F282
:100A8000098201A252F823F0E90A0100210B0100BA
:100A90004D0B0100790B0100A30B0100D90B0100E4
:100AA000050C0100310C01005B0C0100990C0100E8
:100AB000C50C0100F10C01001B0D0100510D0100DE
:100AC000610D0100750D01009F0D0100BD0D0100BC
:100AD000D50D0100950E0100950E0100EB0D0100F2
:100AE000170E0100410E01003B78012B10D17B68ED
:100AF0001B78002B0CBF00230123DBB283F0010322
:100B0000DBB2DAB242F68813C1F200031A72C1E115
:100B10007B681A7842F68813C1F200031A72B9E1B1
:100B20003B78012B0AD17B681B786FEA0303DAB2AA
:100B300042F68813C1F200031A72ABE17B681A789F
:100B400042F68813C1F200031A72A3E13B78012B2D
:100B50000AD17B681B886FEA03039AB242F68813B6
:100B6000C1F200031A8195E17B681A8842F6881366
:100B7000C1F200031A818DE13B78012B09D17B681A
:100B80001B686FEA030242F68813C1F200039A6001
:100B900080E17B681A6842F68813C1F200039A600C
:100BA00078E13B78012B0DD17B68D3E900236FEA14
:100BB00002006FEA030142F68813C1F20003C3E9A1
:100BC000020167E17B68D3E9000142F68813C1F2B4
:100BD0000003C3E902015DE13B78012B0AD17B6888
:100BE0001B786FEA0303DAB242F68813C1F20003FE
:100BF0001A724FE17B681A7842F68813C1F200033B
:100C00001A7247E13B78012B0AD17B681B886FEA97
:100C100003039AB242F68813C1F200031A8139E144
:100C20007B681A8842F68813C1F200031A8131E109
:100C30003B78012B09D17B681B686FEA030242F6FF
:100C40008813C1F200039A6024E17B681A6842F6B7
:100C50008813C1F200039A601CE13B78012B0FD18D
:100C60007B68D3E900236FEA02026FEA03031046B0
:100C7000194642F68813C1F20003C3E9020109E1F3
:100C80007B68D3E900231046194642F68813C1F267
:100C90000003C3E90201FDE03B78012B0AD17B6828
:100CA0001B786FEA0303DAB242F68813C1F200033D
:100CB0001A72EFE07B681A7842F68813C1F20003DB
:100CC0001A72E7E03B78012B0AD17B681B886FEA38
:100CD00003039AB242F68813C1F200031A81D9E0E5
:100CE0007B681A8842F68813C1F200031A81D1E0AA
:100CF0003B78012B09D17B681B686FEA030242F63F
:100D00008813C1F200039A60C4E07B681A6842F657
:100D10008813C1F200039A60BCE03B78012B0DD12F
:100D20007B68D3E900236FEA02006FEA030142F611
:100D30008813C1F20003C3E90201ABE07B68D3E989
:100D4000000142F68813C1F20003C3E90201A1E0E9
:100D50007B681A6842F68813C1F200039A6099E032
:100D60007B68D3E9000142F68813C1F20003C3E9AE
:100D700002018FE03B78012B09D17B681B686FEA89
:100D8000030242F68813C1F200039A6082E07B6896
:100D90001A6842F68813C1F200039A607AE042F6BC
:100DA0008813C1F200037A6803F108014FF00603CB
:100DB000084611461A4601F0C1FF6BE042F688135F
:100DC000C1F200037A6803F1080392E8030083E8A4
:100DD00003005FE042F68813C1F200037A6803F172
:100DE000080307CA83E8070054E03B78012B0AD1C7
:100DF0007B681B886FEA03039AB242F68813C1F23C
:100E000000031A8146E07B681A8842F68813C1F213
:100E100000031A813EE03B78012B09D17B681B68F7
:100E20006FEA030242F68813C1F200039A6031E0D0
:100E30007B681A6842F68813C1F200039A6029E0C1
:100E40004FF00003FB817B687B61144B3B614FF0EB
:100E50000003FB811AE03B78012B07D17B691B78EB
:100E60006FEA0303DAB23B691A7003E07B691A7810
:100E70003B691A703B6903F101033B617B6903F134
:100E800001037B61FB8903F10103FB81FA897B8804
:100E90009A42E0D307F11807BD4680BD90290010A3
:100EA00080B487B000AF786013460A467A807B70C2
:100EB0004FF00003FB817B683B61154B7B614FF07A
:100EC0000003FB811AE07B78012B07D17B691B783B
:100ED0006FEA0303DAB23B691A7003E07B691A78A0
:100EE0003B691A703B6903F101033B617B6903F1C4
:100EF00001037B61FB8903F10103FB81FA897B8894
:100F00009A42E0D307F11C07BD4680BC704700BF82
:100F10009029001080B584B000AF786047F6FF7369
:100F2000FB817B681A787B681A727B6803F108037F
:100F3000184600F087F87B685A7A7B681A707B68DD
:100F40005B78002B04D07B684FF00002DA8011E060
:100F50007B681B78002B0DD07B68DB88B7F90E20EF
:100F60001BB29A4206DD7B68DB8803F101039AB26B
:100F70007B68DA807B68DA887B685B8812B21BB298
:100F80009A42B4BF00230123DAB27B681A7107F1D9
:100F90001007BD4680BD00BF80B582B000AF78604D
:100FA0007B681A787B689A757B6803F1160318468C
:100FB00000F048F87B68DA7D7B685A757B685B7D5A
:100FC000002B09D001F036FA03461A467B681A61F5
:100FD0007B684FF001021A757B681B7D002B1AD0CD
:100FE00001F028FA02467B681B69D31A1A467B680F
:100FF000DA607B68DA687B685B689A420BDB7B6847
:101000004FF001021A727B685A687B68DA607B686D
:101010004FF000021A757B681B7883F00103DBB286
:10102000002B0BD07B684FF00002DA607B684FF03A
:1010300000021A727B684FF000021A7507F1080768
:10104000BD4680BD80B483B000AF78607B681B78FC
:10105000002B09D07B689B7883F00103DBB2002B67
:1010600002D04FF0010301E04FF00003DAB27B68D9
:101070005A707B681A787B689A7007F10C07BD4636
:1010800080BC704780B485B000AF0346FB714FF061
:101090000003FB60FB79042B2AD801A252F823F04D
:1010A000B5100100C1100100CD100100D9100100E0
:1010B000E51001004FF44043C2F20903FB6018E061
:1010C0004CF22003C2F20903FB6012E04CF2400331
:1010D000C2F20903FB600CE04CF26003C2F20903A8
:1010E000FB6006E04CF28003C2F20903FB6000E003
:1010F00000BFFB68184607F11407BD4680BC704767
:1011000080B485B000AF0346FB714FF00003FB6075
:10111000FB79042B2AD801A252F823F031110100E7
:101120003D1101004911010055110100611101003B
:101130004FF44043C2F20903FB6018E04CF2200375
:10114000C2F20903FB6012E04CF24003C2F2090351
:10115000FB600CE04CF26003C2F20903FB6006E0A6
:101160004CF28003C2F20903FB6000E000BFFB68A1
:10117000184607F11407BD4680BC704780B485B09F
:1011800000AF0346FB714FF00003FB60FB79042BBB
:101190002AD801A252F823F0AD110100B9110100C3
:1011A000C5110100D1110100DD1101004FF44043D0
:1011B000C2F20903FB6018E04CF22003C2F20903FB
:1011C000FB6012E04CF24003C2F20903FB600CE04A
:1011D0004CF26003C2F20903FB6006E04CF28003AC
:1011E000C2F20903FB6000E000BFFB68184607F18C
:1011F0001407BD4680BC704780B584B000AF39602D
:1012000013460246FA71BB71FB791846FFF73AFFA5
:101210000346FB60FB68002B13D0BB79002B07D083
:10122000FB681B681A463B681A43FB681A6008E0B3
:10123000FB681B681A463B686FEA03031A40FB68A9
:101240001A6007F11007BD4680BD00BF80B584B0AD
:1012500000AF03463960FB71FB791846FFF712FFB8
:101260000346FB60FB68002B02D0FB683A689A617A
:1012700007F11007BD4680BD80B584B000AF0346BE
:101280003960FB71FB791846FFF7FCFE0346FB60F3
:10129000FB68002B02D0FB683A68DA6107F110079F
:1012A000BD4680BD80B584B000AF0346FB71FB79BD
:1012B0001846FFF7E7FE0346FB60FB68002B02D0F1
:1012C000FB685B6901E04FF00003184607F1100767
:1012D000BD4680BD80B483B000AF3960134602467E
:1012E000FA71BB71FB79002B09D1BB79002B06D1B8
:1012F00048F28003C4F202033A681A6127E0FB79DE
:10130000022B09D1BB79002B06D148F28003C4F22D
:1013100002033A681A631AE0FB79002B09D1BB7902
:10132000012B06D148F28003C4F202033A685A61E5
:101330000DE0FB79022B09D1BB79012B06D148F2D4
:101340008003C4F202033A685A6300E0FEE707F143
:101350000C07BD4680BC704780B483B000AF3960D5
:1013600013460246FA71BB71FB79002B10D1BB7991
:10137000002B0DD148F28003C4F202035B681A46C9
:101380003B6822FA03F3DBB203F00103DBB23CE07B
:10139000FB79022B10D1BB79002B0DD148F28003D1
:1013A000C4F202035B6A1A463B6822FA03F3DBB21B
:1013B00003F00103DBB228E0FB79002B10D1BB79ED
:1013C000012B0DD148F28003C4F202039B681A4638
:1013D0003B6822FA03F3DBB203F00103DBB214E053
:1013E000FB79022B10D1BB79012B0DD148F2800380
:1013F000C4F202039B6A1A463B6822FA03F3DBB28B
:1014000003F00103DBB200E0FEE7184607F10C072A
:10141000BD4680BC704700BF80B483B000AF0346B8
:101420003960FB71FB79002B06D148F28003C4F2CE
:1014300002033A68DA600AE0FB79022B06D148F22F
:101440008003C4F202033A68DA6200E0FEE707F1C3
:101450000C07BD4680BC704780B582B000AF3960D4
:1014600013460246FA71BB71FA79BB7910463968A6
:101470001A46FFF7C1FE07F10807BD4680BD00BF51
:1014800080B582B000AF03463960FB71FB79184626
:101490003968FFF7DBFE07F10807BD4680BD00BFD6
:1014A00080B582B000AF03463960FB71FB79184606
:1014B0003968FFF7E1FE07F10807BD4680BD00BFB0
:1014C00080B582B000AF0346FB71FB791846FFF789
:1014D000E9FE0346184607F10807BD4680BD00BF78
:1014E00080B582B000AF396013460246FA71BB7115
:1014F000FA79BB79104639681A46FFF7EBFE07F117
:101500000807BD4680BD00BF80B582B000AF39601E
:1015100013460246FA71BB71FA79BB7910463968F5
:101520001A46FFF719FF0346184607F10807BD469C
:1015300080BD00BF80B582B000AF03463960FB714B
:10154000FB7918463968FFF767FF07F10807BD46C2
:1015500080BD00BF80B584B000AF3960134602463D
:10156000FA71BB71FB791846FFF78CFD0346FB60EF
:10157000FB68002B13D0BB79002B07D0FB681B69DD
:101580001A463B681A43FB681A6108E0FB681B694E
:101590001A463B686FEA03031A40FB681A6107F1B9
:1015A0001007BD4680BD00BF80B584B000AFF871A4
:1015B000B971BA80FB70FB791846FFF7A1FD0346AD
:1015C000FB60FB68002B35D0FB78002B14D0BB7977
:1015D000002B08D0FB685B889AB2BB8813439AB291
:1015E000FB685A8026E0FB681B889AB2BB881343CD
:1015F0009AB2FB681A801DE0BB79002B0DD0FB6806
:101600005B889BB29AB2BB886FEA03039BB213401C
:101610009BB29AB2FB685A800CE0FB681B889BB2B5
:101620009AB2BB886FEA03039BB213409BB29AB293
:10163000FB681A8007F11007BD4680BD80B584B0F5
:1016400000AFF871B971BA80FB70FB791846FFF7EB
:1016500057FD0346FB60FB68002B35D0FB78002B61
:1016600014D0BB79002B08D0FB685B8A9AB2BB8888
:1016700013439AB2FB685A8226E0FB681B8A9AB22F
:10168000BB8813439AB2FB681A821DE0BB79002B1A
:101690000DD0FB685B8A9BB29AB2BB886FEA0303EA
:1016A0009BB213409BB29AB2FB685A820CE0FB6873
:1016B0001B8A9BB29AB2BB886FEA03039BB21340AA
:1016C0009BB29AB2FB681A8207F11007BD4680BD33
:1016D00080B584B000AF13460246FA710A46BA716B
:1016E000BB80FB791846FFF70BFD0346FB60FB68E8
:1016F000002B09D0BB79002B03D0FB68BA885A8332
:1017000002E0FB68BA881A8307F11007BD4680BD66
:1017100080B584B000AF13460246FA710A46BA712A
:10172000BB80FB791846FFF7EBFC0346FB60FB68C8
:10173000002B09D0BB79002B03D0FB68BA88DA8371
:1017400002E0FB68BA889A8307F11007BD4680BDA6
:1017500080B584B000AF02460B46FA71BB71FB79CD
:101760001846FFF7CDFC0346FB60FB68002B0AD050
:10177000BB79002B03D0FB68DB8A9BB205E0FB68DA
:101780009B8A9BB201E04FF00003184607F1100757
:10179000BD4680BD80B584B000AFF871B9717A7173
:1017A0003B71FB791846FFF7E9FC0346FB60FB68D9
:1017B000002B22D03B79002B0DD0BB79032B1CD8FA
:1017C000BB79BA79F9688A5CD1B27A790A43D1B225
:1017D000FA68D15411E0BB79032B0ED8BB79BA79E2
:1017E000F9688A5CD2B2D1B27A796FEA0202D2B2D7
:1017F0000A40D2B2D1B2FA68D15407F11007BD46FF
:1018000080BD00BF80B584B000AFF871B9717A7146
:101810003B71FB791846FFF7B1FC0346FB60FB68A0
:10182000002B26D03B79002B0FD0BB79032B20D87F
:10183000BB79BA79F9688A18127CD1B27A790A43ED
:10184000D2B2F968CB181A7413E0BB79032B10D805
:10185000BB79BA79F9688A18127CD2B2D1B27A7996
:101860006FEA0202D2B20A40D2B2D2B2F968CB1801
:101870001A7407F11007BD4680BD00BF80B584B063
:1018800000AF13460246FA710A46BA717B71FB79C2
:101890001846FFF773FC0346FB60FB68002B07D07C
:1018A000BB79032B04D8BB79FA68D3187A791A76F6
:1018B00007F11007BD4680BD80B584B000AF134668
:1018C0000246FA710A46BA717B71FB791846FFF736
:1018D00055FC0346FB60FB68002B07D0BB79032B4C
:1018E00004D8BB79FA68D3187A791A7707F1100708
:1018F000BD4680BD80B584B000AF02460B46FA718C
:10190000BB71FB791846FFF739FC0346FB60FB68A7
:10191000002B08D0BB79032B05D8BB79FA68D31804
:101920001B7DDBB201E04FF00003184607F1100702
:10193000BD4680BD80B400AF4FF44043C4F20F03F6
:10194000D3F888304FEA136303F00303032B40F00E
:10195000A4804FF44043C4F20F03D3F80C3103F0DA
:101960000303032B00F2EC8001A252F823F000BF26
:1019700081190100E1190100431A010081190100D8
:101980004FF44043C4F20F03D3F888304FEA434387
:101990004FEA534303F101024FF49053C0F27A032C
:1019A00003FB02F24FF44043C4F20F03D3F8883034
:1019B0004FEA1343DBB203F10103B2FBF3F24FF43E
:1019C0004043C4F20F03D3F80431DBB203F1010347
:1019D000B2FBF3F240F20003C1F200031A60B0E080
:1019E0004FF44043C4F20F03D3F888304FEA434327
:1019F0004FEA534303F101024FF45853C0F26E1300
:101A000003FB02F24FF44043C4F20F03D3F88830D3
:101A10004FEA1343DBB203F10103B2FBF3F24FF4DD
:101A20004043C4F20F03D3F80431DBB203F10103E6
:101A3000B2FBF3F240F20003C1F200031A6000BFF0
:101A40007FE04FF44043C4F20F03D3F888304FEAED
:101A500043434FEA534303F101034FEA03424FF478
:101A60004043C4F20F03D3F888304FEA1343DBB28C
:101A700003F10103B2FBF3F24FF44043C4F20F034E
:101A8000D3F80431DBB203F10103B2FBF3F240F20D
:101A90000003C1F200031A6052E04FF44043C4F265
:101AA0000F03D3F80C3103F00303032B49D801A231
:101AB00052F823F0C51A0100EF1A0100191B0100AA
:101AC000C51A01004FF44043C4F20F03D3F80431A8
:101AD000DBB203F101024FF41063C0F23D03B3FB2C
:101AE000F2F240F20003C1F200031A6029E04FF461
:101AF0004043C4F20F03D3F80431DBB203F1010217
:101B00004FF4D853C0F2B703B3FBF2F240F2000334
:101B1000C1F200031A6014E04FF44043C4F20F0313
:101B2000D3F80431DBB203F101034FF40042B2FBFE
:101B3000F3F240F20003C1F200031A6000BF00E0BC
:101B400000BFBD4680BC704780B400AF4FF4404337
:101B5000C4F20F034FF02002C3F8A0214FF440431A
:101B6000C4F20F03D3F8A03103F02003002B0AD0F6
:101B700000BF4FF44043C4F20F03D3F8A03103F089
:101B80004003002BF5D04FF44043C4F20F034FF055
:101B90000302C3F804214FF44043C4F20F034FF093
:101BA0000002C3F8A8214FF44043C4F20F034FF0E2
:101BB0000002C3F8AC214FF44043C4F20F034FF0CE
:101BC0000102C3F80C214FF44043C4F20F034FF05D
:101BD0006302C0F20502C3F884204FF44043C4F20C
:101BE0000F034FF0AA02C3F88C204FF44043C4F215
:101BF0000F034FF05502C3F88C204FF44043C4F25A
:101C00000F034FF00102C3F880204FF44043C4F2A9
:101C10000F034FF0AA02C3F88C204FF44043C4F2E4
:101C20000F034FF05502C3F88C2000BF4FF4404320
:101C3000C4F20F03D3F8883003F08063002BF5D093
:101C40004FF44043C4F20F034FF00302C3F8802067
:101C50004FF44043C4F20F034FF0AA02C3F88C20A4
:101C60004FF44043C4F20F034FF05502C3F88C20E9
:101C700000BF4FF44043C4F20F03D3F8883003F0A1
:101C80004073002BF5D04FF44043C4F20F034FF0E4
:101C90002302C3F8A4204FF44043C4F20F034FF0D3
:101CA000AA02C3F8AC204FF44043C4F20F034FF034
:101CB0005502C3F8AC204FF44043C4F20F034FF079
:101CC0000102C3F8A0204FF44043C4F20F034FF0C9
:101CD000AA02C3F8AC204FF44043C4F20F034FF004
:101CE0005502C3F8AC2000BF4FF44043C4F20F03C9
:101CF000D3F8A83003F48063002BF5D04FF44043B1
:101D0000C4F20F034FF00302C3F8A0204FF4404386
:101D1000C4F20F034FF0AA02C3F8AC204FF44043C3
:101D2000C4F20F034FF05502C3F8AC2000BF4FF4CC
:101D30004043C4F20F03D3F8A83003F44073002BE0
:101D4000F5D04FF44043C4F20F0348F2DE72C0F204
:101D50002842C3F8C4204FF44043C4F20F034FF0AD
:101D60000002C3F8C8214FF44043C4F20F0343F20A
:101D70003A021A604FF46D43CEF200034FF00002B6
:101D80009A60BD4680BC70474FF0807340F8043CB9
:101D900040F8081C4FF0000340F80C3C40F8202CA1
:101DA000A0F14000704700BF064B19680868B0E812
:101DB000F00F80F309884FF0000080F311884EF097
:101DC0000D0E70476400001042480068006880F300
:101DD000088800DF10B54EF62053CEF200031A68D3
:101DE00042F478021A601A6842F078421A604EF2A1
:101DF0001403CEF2000348F29F62C0F201021A609F
:101E00004EF21003CEF200034FF007021A6040F2C8
:101E10000403C1F200034FF000041C60FFF7D4FF7D
:101E2000204610BD704700BF4EF60453CEF20003AB
:101E30004FF080521A6070474FF0280080F31188ED
:101E400040F20403C1F200031A6802F101021A60B1
:101E5000704700BF40F20403C1F200031A6802F1A8
:101E6000FF321A601AB94FF0000080F311887047F2
:101E7000EFF309800C4B1A6820E9F00F10602DE990
:101E800008404FF0280080F3118800F08FFC4FF0DD
:101E9000000080F31188BDE8084019680868B0E8C0
:101EA000F00F80F3098870476400001008B54EF603
:101EB0000453CEF200034FF080521A604FF0280016
:101EC00080F3118800F0CAFA4FF0000080F3118807
:101ED00008BD000008ED00E02DE9F84F82460F46EE
:101EE00016469946DDF828B00C9D4FF0440000F0EE
:101EF00023FE0446002800F0DD80002D40F0E6803F
:101F00004FEA860000F018FE0546206330B92046EF
:101F100000F08AFE4FF0FF30BDE8F88F4FEA8602EE
:101F200028464FF0A50100F00BFF06F1FF38236BA8
:101F300003EB880828F0070804F1340039464FF015
:101F40000C0200F08DFF4FF0000384F83F30BBF12E
:101F5000040F34BF5D460425E562256404F10406E0
:101F6000304600F09BFE04F1180000F097FE24615B
:101F7000C5F10505A5616462404651464A46FFF732
:101F800003FF2060FFF758FF40F26003C1F2000337
:101F90001A6802F101021A601B68012B31D140F26C
:101FA0006003C1F200035C604FF0000503F1080715
:101FB00005EB850007EB800000F064FE05F10105EC
:101FC000052DF5D140F26005C1F2000505F16C0761
:101FD000384600F057FE05F18008404600F052FEFA
:101FE00005F1940000F04EFE05F1A80000F04AFE55
:101FF00005F1BC0000F046FEC5F8D070C5F8D480ED
:1020000013E040F26003C1F20003D3F8D83063B9A3
:1020100040F26003C1F200035B68DB6A9B4504D3B6
:1020200040F26003C1F200035C60E06A40F26003CA
:10203000C1F20003D3F8DC30984205D940F26003C6
:10204000C1F20003C3F8DC0040F26003C1F20003F8
:10205000D3F8E02002F10102C3F8E020D3F8E43025
:10206000984205D940F26003C1F20003C3F8E400CE
:1020700000EB8000164B03EB8000314600F012FEAF
:10208000FFF7E8FE0B9B03B11C6040F26003C1F256
:102090000003D3F8D8308BB140F26003C1F20003E3
:1020A0005B68DB6A9B450DD9FFF7BEFE4FF0010070
:1020B000BDE8F88F4FF0FF30BDE8F88F4FF001001A
:1020C000BDE8F88F4FF00100BDE8F88F056325E704
:1020D0006800001070B50546FFF7AEFE40F26003E1
:1020E000C1F200035B689D4201D045B901E04FF0A9
:1020F000000540F26003C1F200035C6800E02C467A
:1021000004F10406304600F0FBFDA36A1BB104F1A4
:10211000180000F0F5FD40F26004C1F2000404F183
:10212000A800314600F0BEFDD4F8E83003F1010309
:10213000C4F8E830D4F8E03003F10103C4F8E0302B
:10214000FFF788FED4F8D83013B10DB9FFF76CFE55
:1021500070BD00BF10B50446FFF76EFE24B940F213
:102160006003C1F200035C68E46AFFF773FE204677
:1021700010BD00BF70B50546042934BF0E460426C5
:10218000FFF75AFE40F26003C1F200035B689D4214
:1021900001D045B901E04FF0000540F26003C1F203
:1021A00000035C6800E02C46236CB34237D003D2B6
:1021B000003518BF012503E0D5F1010538BF002522
:1021C000E26A934208BFE6622664C6F10506A6618C
:1021D00003EB8303134A02EB830362699A421BD128
:1021E00004F10406304600F08BFDE36A40F2600221
:1021F000C1F20002D2F8E420934205D940F2600215
:10220000C1F20002C2F8E43003EB8303054A02EB9B
:102210008300314600F046FD0DB1FFF705FEFFF7E4
:1022200019FE70BD6800001070B50446FFF704FE8B
:1022300040F26003C1F200035B689C4201D044B9E4
:1022400001E04FF0000440F26003C1F200035D685A
:1022500000E0254605F10406304600F051FDAB6A6A
:102260001BB105F1180000F04BFD0548314600F0A8
:1022700019FDFFF7EFFD0CB9FFF7D6FD70BD00BFEC
:102280001C0100104269094B9A4209D1806AA3F1EE
:102290002803984207D0D0F1010038BF00207047D2
:1022A0004FF0000070474FF0000070471C01001015
:1022B00070B50446002837D040F26003C1F2000335
:1022C0005B68984230D0FFF7B7FD2046FFF7DAFF92
:1022D000012827D104F10406304600F011FDE36A1D
:1022E00040F26002C1F20002D2F8E420934205D924
:1022F00040F26002C1F20002C2F8E43040F2600530
:10230000C1F2000505F1080203EB830302EB830031
:10231000314600F0C7FC6B68E26ADB6A9A4201D37F
:10232000FFF782FDFFF796FD70BD00BFF8B50446CC
:10233000FFF7A8FF01282ED140F26003C1F200038D
:10234000D3F8EC30FBB940F26006C1F200067368C6
:10235000E56ADB6A9D4234BF0025012504F10407CC
:10236000384600F0CDFCE06AD6F8E430984201D956
:10237000C6F8E40000EB8000094B03EB800039460F
:1023800000F090FC09E004F11801064800F08AFC16
:102390004FF0000501E04FF000052846F8BD00BFF2
:1023A00068000010F400001000B585B042F25160E2
:1023B000C0F2010043F21451C0F201014FF00003DA
:1023C00000930193029303934FF06402FFF784FD9F
:1023D000012811D14FF0280080F3118840F26003EA
:1023E000C1F200034FF00102C3F8D8204FF0000201
:1023F000C3F8F020FFF7EEFC05B000BD08B54FF0C4
:10240000280080F3118840F26003C1F200034FF00E
:102410000002C3F8D820FFF705FD08BD40F26003B5
:10242000C1F20003D3F8EC2002F10102C3F8EC2062
:10243000704700BF10B5FFF7FFFC40F26003C1F228
:102440000003D3F8F040FFF705FD204610BD00BFA4
:1024500040F26003C1F2000318687047F8B540F21B
:102460006003C1F20003D3F8EC30002B4FD140F2EF
:102470006003C1F20003D3F8F02002F10102C3F8B7
:10248000F020D3F8F0308BBB40F26003C1F20003C0
:10249000D3F8D020D3F8D410C3F8D010C3F8D42088
:1024A000D3F8F42002F10102C3F8F4201EE0D5F8BD
:1024B000F03062689A4236D804F10406304600F0E3
:1024C0001FFCA36A1BB104F1180000F019FCE06ABC
:1024D000D5F8E430984288BFC5F8E40000EB8000EE
:1024E00007EB8000314600F0DDFB05E040F26005BF
:1024F000C1F2000505F10807D5F8D0301B6893B18B
:10250000D5F8D030DB68DC68002CD0D10BE040F28D
:102510006003C1F20003D3F8F82002F10102C3F80E
:10252000F820FDF75DFE40F26003C1F20003D3F82E
:10253000F8300BB9FDF754FEF8BD00BF2DE9F041AE
:10254000FFF77AFC40F26003C1F20003D3F8EC20FD
:1025500002F1FF32C3F8EC20D3F8EC30002B6CD141
:1025600040F26003C1F200031B6803BB4FF000049C
:1025700068E004F1180000F0C3FB04F104063046E3
:1025800000F0BEFBE06AD5F8E430984288BFC5F899
:10259000E40000EB800008EB8000314600F082FB95
:1025A0006B68E26ADB6A9A4228BF012707E04FF0B6
:1025B000000740F26005C1F2000505F10808D5F8F2
:1025C000943023B1D5F8A030DC68002CD1D140F292
:1025D0006003C1F20003D3F8F830BBB140F26003EE
:1025E000C1F20003D3F8F830D3B140F26004C1F275
:1025F0000004FFF733FFD4F8F83003F1FF33C4F8D9
:10260000F830D4F8F830002BF3D109E0012F07D0CF
:1026100040F26003C1F20003D3F8FC30012B0FD16C
:1026200040F26003C1F200034FF00002C3F8FC2047
:10263000FFF7FAFB4FF0010404E04FF0000401E063
:102640004FF00004FFF706FC2046BDE8F08100BF14
:1026500008B540F26004C1F200044FF00006D4F85F
:10266000E83033B3FFF7DAFED4F8A850FFF766FF7F
:10267000FDB1FFF7E1FBD4F8A8301BB1D4F8B430BA
:10268000DD6800E0354605F1040000F039FB236801
:1026900003F1FF332360D4F8E83003F1FF33C4F8CB
:1026A000E830FFF7D7FB286B00F0BEFA284600F0B1
:1026B000BBFAFDF793FDD2E738B5044620B3FFF728
:1026C000ADFE40F26005C1F20005D5F8F030E41827
:1026D000686800F1040000F013FB6B685C60D5F8DB
:1026E000F0309C4240F2600339BF2B46D3F8D4004F
:1026F000C1F20003D3F8D000596801F1040100F0E1
:10270000E1FAFFF71BFF08B9FFF78EFB38BD00BFEA
:1027100038B505460C46FFF781FE2B68E41840F2F9
:102720006002C1F20002D2F8F02093420BD9A3421A
:1027300039D940F26003C1F20003D3F8F0302C60C5
:102740009C4228D90AE0A3422BD840F26003C1F290
:102750000003D3F8F0309C4223D824E040F2600517
:10276000C1F20005686800F1040000F0C9FA6B6866
:102770005C60D5F8F0309C4240F2600339BF2B46D4
:10278000D3F8D400C1F20003D3F8D000596801F1A6
:10279000040100F097FAFFF7D1FE30B9FFF744FBD0
:1027A00038BD2C60DAE72C60F5E738BD08B540F29B
:1027B0006003C1F20003D3F8EC3043B140F2600390
:1027C000C1F200034FF00102C3F8FC2008BD40F243
:1027D0006003C1F200035A685B6812681B6B9A427F
:1027E00009D840F26003C1F200035868596801F14A
:1027F0003401FDF7F1FC40F26003C1F200035B68B5
:10280000186B43F20051C0F201014FF0140200F0C6
:10281000E7FA48B140F26003C1F200035868596812
:1028200001F13401FDF7D8FC40F26003C1F200036E
:10283000D3F8E42003F1080302EB82024FEA82029C
:102840009B589BB940F26003C1F2000303F10801F9
:10285000D3F8E42002F1FF32C3F8E420D3F8E420F7
:1028600002EB820251F82220002AF1D040F26002ED
:10287000C1F20002D2F8E41002F1080201EB81017A
:1028800002EB81035A6852685A6003F108018A42D8
:1028900004BF52685A605B68DA6840F26003C1F2B4
:1028A00000035A6008BD00BF38B50D4640F2600411
:1028B000C1F20004616801F1180100F003FA6068D8
:1028C00000F1040000F01CFAB5F1FF3F07D1616888
:1028D00004F1BC0001F1040100F0E4F938BD40F25C
:1028E0006003C1F20003D3F8F020AD185A685560B8
:1028F000D3F8F0309D4240F26003C1F2000334BFD0
:10290000D3F8D400D3F8D000596801F1040100F0E5
:10291000D9F938BD38B5036813B1C368DC6801E084
:102920004FF0000404F11805284600F0E9F940F2E0
:102930006003C1F20003D3F8EC30E3B904F10405FD
:10294000284600F0DDF9E06A40F26003C1F20003BE
:10295000D3F8E430984205D940F26003C1F2000395
:10296000C3F8E40000EB80000B4B03EB800029462A
:1029700000F098F903E00948294600F093F940F285
:102980006003C1F200035B68E06ADB6A984234BF0F
:102990000020012038BD00BF68000010F4000010C6
:1029A00040F26003C1F20003D3F8F4200260D3F8D0
:1029B000F0304360704700BF38B504460D46FFF75E
:1029C0003BFA2A68B2F1FF3F2AD040F26003C1F21D
:1029D0000003D3F8F4302168994208D040F2600334
:1029E000C1F20003D3F8F030616899421BD940F27C
:1029F0006003C1F20003D3F8F0106368C91A8A4279
:102A000014D940F26001C1F20001D1F8F0105B1A54
:102A10009A182A602046FFF7C3FF4FF0000407E032
:102A20004FF0000404E04FF0010401E04FF0010416
:102A3000FFF710FA204638BD40F26003C1F20003F0
:102A40004FF00102C3F8FC20704700BF40F2600362
:102A5000C1F200035868704738B50446C26A40F2B4
:102A60006003C1F200035B68DB6A9A4237D240F22E
:102A70006003C1F200035968C96AC1F105018161AF
:102A800003F1080302EB820203EB820243699342E3
:102A90001ED100F10405284600F032F940F2600230
:102AA000C1F200025368DB6AE362D2F8E420934289
:102AB00005D940F26002C1F20002C2F8E43003EB33
:102AC0008303074A02EB8300294600F0EBF838BD88
:102AD00040F26003C1F200035B68DB6AC36238BD89
:102AE0006800001038B5044618B3C26A036C9A42F5
:102AF0001FD000F10405284600F002F9206CE062C6
:102B0000C0F10503A36140F26003C1F20003D3F8F2
:102B1000E430984205D940F26003C1F20003C3F8E3
:102B2000E40000EB8000034B03EB8000294600F03B
:102B3000B9F838BD6800001070B50446FFF76EFCA8
:102B400040F26013C1F200039B68E3B940F26013E6
:102B5000C1F2000303F110021A604FF00000586048
:102B600042F25032C1F200024FF42051C2F8241652
:102B7000C2F82006596102F5C4601861C2F828162F
:102B80004FF001029A60002C47D004F1100111F0BF
:102B9000070F1CBF21F00701083101F1FF3242F29B
:102BA000FE739A4239D840F26010C1F20000036807
:102BB00001E0184613465A68914202D91A68002A61
:102BC000F7D1184A934228D0046804F110041A6817
:102BD00002605A68521A202A0FD95E187260596032
:102BE000756840F26012C1F2000200E01A461368F4
:102BF00058688542FAD83360166042F25033C1F209
:102C00000003D3F82826511AC3F82816FFF796FCBC
:102C10000CB9FDF7DFFA204670BDFFF78FFC4FF0CF
:102C20000004F6E77029001038B50446F8B1A0F1A9
:102C30001005FFF7F3FB54F80C0C40F26012C1F2E0
:102C4000000200E01A46136859688842FAD844F82E
:102C5000103C156042F25033C1F20003D3F828163D
:102C600054F80C2C8A18C3F82826FFF767FC38BDE7
:102C700042F25033C1F20003D3F82806704700BF78
:102C8000704700BF00F1080343604FF0FF328260DD
:102C9000C36003614FF00003036070474FF000030F
:102CA0000361704743685A684A6042688A605A689C
:102CB0009160596041600861036803F1010303609A
:102CC000704700BF10B40C68B4F1FF3F01D1036935
:102CD0000AE000F10803C2681268944204D35B68FA
:102CE0005A6812689442FAD25A684A6091608B60BE
:102CF00059600861036803F10103036010BC704769
:102D0000436882689A60836842685A6003695A68B7
:102D1000824204BF82685A604FF0000202611A6862
:102D200002F1FF321A607047002008B501460246E2
:102D300000F008F8BDE80840FDF718BA00F03DBB08
:102D400000F04EBB10B500214FF4A0721E48FFF7F3
:102D5000F7FFC02000F0D8F91C4C0021C0222060F1
:102D6000FFF7EEFF184B226803F5A0715A62283373
:102D700018328B42FAD100201549134A00F0BCF8F2
:102D800000214FF480534FF480620F4800F044F864
:102D900001201049104A00F0AFF800214FF4805391
:102DA0004FF480620C4800F037F8022009490B4AC2
:102DB00000F0A2F8094800214FF480624FF48053DC
:102DC000BDE8104000F028B89C3100109831001088
:102DD0001C3501001E350100C4310010EC3100101B
:102DE00041EA00039B0730B511D102E00430043101
:102DF000043A032A0BD904680B689C42F6D006E01B
:102E0000C55CCC5C0133A54202D0281B30BD002339
:102E10009342F5D1002030BD70B5C46814F0030FA3
:102E200017D0B2F5007F09D0B2F5806F03D0B2F5AC
:102E3000807F0ED102E0416A012303E0074D5E1E50
:102E4000AE4208D8224301610160C361C260002024
:102E500070BD012070BD012070BD00BFFEFFFF00EE
:102E600041EA00039B0770B520D1034603E043F815
:102E7000045C0431043A032A1C4618D90D68043353
:102E8000A5F1013626EA050616F0803FEFD00EE0E8
:102E900011F8013B013A04F8013B25463BB91946BC
:102EA00001E0E95401339342FBD170BD0446002A8E
:102EB000EED170BDC36810B523F02003C360436A30
:102EC00082695B6804469A420FD000F04BF8E368D1
:102ED000626A23F4405323F0100343F01003E360CD
:102EE0005368A361236993602360E36823F48043FC
:102EF00023F04003E36010BD70B50E460546104652
:102F0000144600F011F93378722B04D0772B09D0D6
:102F1000612B24D102E00023012205E0082348F2BE
:102F2000020201E00423022216F8011F2B2902D01D
:102F300062290AD104E042F0030243F00203F3E7FE
:102F400042F0040243F00103EEE71B07E260656113
:102F500006D520460021022200F036F900E00024C8
:102F6000204670BD38B5426A044605690368C068EA
:102F7000916820F40022E26000F08202022A17D158
:102F800010F4803019D0994238BF1946A94205D0B3
:102F9000491B2846224600F011F860B9636A0020F8
:102FA0009D60E368256023F48033A060E36038BD52
:102FB0004FF0FF3038BD4FF0FF3038BD2DE9F04104
:102FC000D7680646FB020D461446D2F8148005D594
:102FD000404600F023FA47F01007A061174B3B4032
:102FE00093B14046A16900F02BFA002807DAE368A4
:102FF0004FF0FF3043F08003E360BDE8F08127F439
:10300000003727F01007E7602A464046314600F0B7
:1030100023FAA84214BF4FF0FF30002020F00043F5
:10302000ED1AA3695D19A56128B1E3684FF0FF307F
:1030300043F08003E360BDE8F08100BF10000200B0
:10304000F8B52D4BC51C1C68AD08002853D00027CF
:10305000EA1C3AE02168B1F1805F34D1A668336898
:10306000B3F1805F636806D171685B1803336360F6
:10307000B368A36029E0AB4205D120464FF000536E
:1030800040F80C3BF8BD93420FD920464FF0005258
:1030900040F80C2B5B1B00EB8502033B6560A260D4
:1030A00040F8251053609660F8BD66B99B00C01AC1
:1030B00000F0D8F901301BD04FF0005384E828000D
:1030C00004F10C00F8BD2746A468002CC2D10C30D6
:1030D00000F0C8F9431C0DD04FF0005380E82800E1
:1030E000846017B9044B186000E0B8600C30F8BD7C
:1030F0003046F8BD2046F8BDDC3200104FF080535A
:1031000040F80C3C7047000010B5FFF799FF0446EB
:1031100028B90449172200F09FF900F073F92046FE
:1031200010BD00BF203501002DE9F04100F10C0673
:1031300096E8C001B10786B00446456A25D032073B
:1031400016D400F027F8404600F062F9330502D5A6
:103150003846FFF7D3FFB60DB60516F1A54F07D1D8
:1031600001A8216A142200F071F901A800F0D4F836
:1031700000211822606AFFF7E3FD20460021282283
:10318000FFF7DEFD6562002001E04FF0FF3006B082
:10319000BDE8F081F8B518B1BDE8F84000F0ECB832
:1031A000084E04460546282707FB046000F0E4F8B3
:1031B0000134002818BF4FF0FF35082CF4D1284601
:1031C000F8BD00BF9C3100102DE9F0413E4BC668B0
:1031D000044633400D461746D0F81480002B6CD0BF
:1031E000404600F021F9002867D1012F04D0022FBA
:1031F00007D0002F26D060E0204600F067F82D1899
:1032000020E0404600F00AF9002806DAE3680120D1
:1032100043F08003E360BDE8F081626AA1699768CA
:1032200023689F422CBFCB19CB1821695B1AE16838
:10323000890603D552689342B8BF13468342ACBF98
:10324000ED182D18002D3BDBB20405D5636A22680A
:103250009968914238BF9A60A3699D420EDB606A0B
:1032600022688168914238BF11462269CF18BF1A7F
:10327000BD4203DCC0681F18BD4207DB0023A3600A
:103280006360636A46F020065D600EE0ED1AB307E6
:1032900044BFC0EB0500A060F30702D5511A6918BE
:1032A00061605519256026F0200626F4022626F4D2
:1032B0008256E6600020BDE8F0810220BDE8F08182
:1032C0000220BDE8F08100BF03001000C3689A0728
:1032D00005D1104B21221A604FF0FF30704713F4D4
:1032E000002F03F020030AD013B1436A586804E0AA
:1032F00083690268D2180369D01A0138704713B184
:10330000436A5868704783690268D2180369D01A03
:10331000704700BF8029001010B5044600F006F881
:1033200001462046BDE8104000F084B8411C04E08E
:103330001B7801300BB9401A704782070346F7D15A
:1033400000E004331A68A2F1013020EA020010F014
:10335000803FF6D012F0FF0F0BD012F47F4F06D053
:1033600012F47F0F01D0043304E0033302E0023390
:1033700000E00133581A7047C36870B513F00304B6
:10338000054618D09B0604D5436A5E68FFF792FD98
:1033900004E083690668F6180369F61AEB682846A4
:1033A00023F44053EB60FFF7DDFD31460446002275
:1033B0002846FFF709FF204670BD0346091A043A64
:1033C00005D3043A51F803C043F804CBF9D2D2072D
:1033D00024BFCA5A23F8022B44BFCA5C1A70704734
:1033E0000346043A08D3C9B241EA012141EA014146
:1033F000043A43F8041BFBD2043202D0013A995438
:10340000FCD1704718200149ABBE7047260002006E
:1034100003B469460220ABBE02B0704703B46946EC
:103420000C20ABBE02B0704703B469460920ABBEA6
:1034300002B0704703B469460E20ABBE02B07047BD
:1034400003B469460A20ABBE02B070470FB46946A8
:103450000D20ABBE04B070470FB469460520ABBE6B
:1034600004B0704738B50C4B1A680AB90B4A1A6099
:10347000C51C1C6825F003056519284600F012F8E4
:1034800010B9054B1D6004E0054B0C221A604FF08B
:10349000FF34204638BD00BFE0320010E432001097
:1034A00080290010084A6B46934201D9984206D2FF
:1034B000064B33B1984234BF0020012070470120F1
:1034C00070471846704700BFE4320010000000004B
:1034D000504C65726943205363616E206379636C5D
:1034E0006500000054617265612070657269F36463
:1034F000696361205461726561506572000000006B
:10350000A5A5A5A5A5A5A5A5A5A5A5A5A5A5A5A56B
:10351000A5A5A5A549444C45000000007200770010
:103520002A2A2A205F437379735F616C6C6F632072
:103530006661696C65640A0000E1F505AAAAAAAA99
:00000001FF
